:020000040800F2
:10000000480800202902000877160008B7140008E5
:1000100075160008B1040008491A00080000000025
:100020000000000000000000000000007B16000837
:10003000B304000800000000791600087D160008CF
:10004000430200084302000843020008430200087C
:10005000430200084302000843020008430200086C
:10006000430200084302000843020008430200085C
:10007000430200084302000843020008430200084C
:10008000430200084302000843020008430200083C
:10009000430200084302000843020008430200082C
:1000A000430200084302000843020008430200081C
:1000B000430200084302000843020008430200080C
:1000C00043020008430200084302000843020008FC
:1000D00043020008F919000843020008430200081F
:1000E00043020008430200084302000843020008DC
:1000F00043020008430200084302000843020008CC
:1001000043020008430200084302000843020008BB
:1001100043020008430200084302000843020008AB
:10012000430200084302000843020008430200089B
:10013000430200084302000843020008430200088B
:10014000430200084302000843020008430200087B
:10015000430200084302000843020008430200086B
:10016000430200084302000843020008430200085B
:100170004302000843020008430200080000000098
:10018000430200084302000800F002F800F03CF8C7
:100190000AA090E8000C82448344AAF10107DA45E2
:1001A00001D100F031F8AFF2090EBAE80F0013F0F8
:1001B000010F18BFFB1A43F001031847DC7C000055
:1001C000FC7C0000103A24BF78C878C1FAD85207E6
:1001D00024BF30C830C144BF04680C6070470000C1
:1001E0000023002400250026103A28BF78C1FBD840
:1001F000520728BF30C148BF0B6070471FB504F0DD
:1002000079FE1FBD10B510BD00F00CF91146FFF7C7
:10021000F5FF04F091FC00F03EF903B4FFF7F2FFA4
:1002200003BC01F022FC0000094880470948004750
:10023000FEE7FEE7FEE7FEE7FEE7FEE7FEE7FEE796
:10024000FEE7FEE704480549054A064B70470000F3
:1002500015170008890100084802002048080020FE
:100260004804002048040020704753EA020C00F0C4
:1002700069802DE9F04B4FF00006002B1FBFB3FA49
:1002800083F503FA05F424FA05F65E4012BF16431F
:10029000B2FA82F502FA05F4C5F120051EBF22FA72
:1002A00005FC44EA0C04203556EA044C4FEA144499
:1002B00018BF641C4FF000084FF00009904271EB2A
:1002C000030C39D3002919BFB1FA81F701FA07F6F7
:1002D000B0FA80F700FA07F6C7F120071EBF20FA30
:1002E00007FC46EA0C062037B6FBF4FCA7EB050733
:1002F000103F07F01F0BCBF120060CFA0BFB2CFA7A
:1003000006F644BFB3460026202FA4BF5E464FF03A
:10031000000B5BEA060C08BF4FF0010B19EB0B0951
:10032000ABFB027C48EB0608C01B06FB02CC0BFBB8
:1003300003CC71EB0C01C1E70B460246414648462F
:10034000BDE8F08B13B54FF000004FF00001AFF3A4
:100350000080BDE81C4070470FB4044910B503AAE3
:10036000029800F031F810BC5DF814FB0800002082
:100370004FF0000200B5134694469646203922BF3E
:10038000A0E80C50A0E80C50B1F12001BFF4F7AF89
:10039000090728BFA0E80C5048BF0CC05DF804EB6B
:1003A000890028BF40F8042B08BF704748BF20F8D9
:1003B000022B11F0804F18BF00F8012B70477047D7
:1003C0007047704770470000074B70B50D467B447F
:1003D00000F011F80446284600F020F810B14FF064
:1003E000FF3070BD204670BD9B16000001694A1C9D
:1003F00002610878704700B58FB0CDE90131002166
:10040000059105497944CDE903101146684600F08D
:100410002EF80FB000BD0000E5FFFFFF007B00F0ED
:1004200080007047754600F03FF8AE46050069460B
:10043000534620F00700854618B020B5FFF702FFAD
:10044000BDE820404FF000064FF000074FF00008D5
:100450004FF0000B21F00701AC46ACE8C009ACE856
:10046000C009ACE8C009ACE8C0098D4670472DE969
:10047000F04106460024D6E90170F5688046304612
:1004800003E04146B847641C3046A8470028F8D12D
:100490002046BDE8F08110B50446AFF30080204649
:1004A000BDE81040FFF7B9BE00487047E4010020E6
:1004B000FEE7704772B6FEE730B5B3F5804F05D062
:1004C0006FF0704140F82210002030BD8C690B683D
:1004D0008D6823434C688989240144EA0524234319
:1004E00043EA014150F82230014C23401943E9E727
:1004F0000000F0CF10B50A6850F8223023F0010355
:1005000040F822308C68082C23D000234A6822430C
:10051000CC681C430B6922431A434B690E4C1A43A7
:10052000CB691A430B6A1A434B6A1A438B6A1A4304
:10053000CB6A1A430B6B1A438B691343CA6B096866
:100540001A4350F82130A343134340F821300020D0
:1005500010BD4023DAE700007FFF0F0030B5D1E97E
:10056000003443EA04138C688D89240244EA05446C
:1005700023430C8A074D00EB820005EB0454234310
:100580000C7D6D0105EB0464896923430B434360D3
:10059000002030BD0000F0FF2DE9F0410446876DDA
:1005A00000F0C2F9064694F835000025022806D06E
:1005B0008020606584F834500120BDE8F081206817
:1005C000016821F0160101602068416921F0800175
:1005D0004161206C08B9A06C20B12068016821F04D
:1005E000080101602068016821F0010101600CE050
:1005F00000F09AF9801B052807D9202060650320A8
:1006000084F8350084F83450D7E720680068C007C4
:10061000EED194F85C103F208840B860012084F847
:10062000350084F834500020C7E790F835100229CF
:1006300003D08021416501207047052180F83510E5
:100640000068016821F0010101600020704700008E
:1006500070B5044600F068F90546601C02D00448F5
:100660000078044400F060F9401BA042FAD370BD4A
:10067000140000202DE9F04186B014216846FFF7F0
:1006800077FE20480168002939D1012101601E4808
:100690000024016841F00101016000684FF48058B6
:1006A00000F001000C27CDF80080CDE9047003268E
:1006B00002250396CDE901546946144800F02EF84E
:1006C0004FF68070CDE9000502AA694682E8D000A5
:1006D0000F4800F023F84CF23370CDE9000502AA70
:1006E000694682E8D0000B4800F018F802AA694673
:1006F00082E8D000CDE90085074800F00FF806B089
:10070000BDE8F0810C00002038380240001402409F
:1007100000100240000C0240001802402DE9F84F82
:10072000DFF8BCA10022012503264FF00F090AF1D2
:10073000040BAAF1040E00BF0B6805FA02F4234073
:10074000A34270D10F7907F00307012F01D0022FC8
:1007500016D187684FEA420806FA08FC27EA0C0718
:10076000D1F80CC00CFA08FC4CEA070CC0F808C021
:100770004768A7430C79C4F3001494403C43446099
:100780000C79E443A4070AD0C4684FEA420C06FA85
:100790000CF7BC438F6807FA0CF72743C7600C7946
:1007A00004F00304022C12D1D40800EB840CDCF812
:1007B00020405707FF0E09FA07F824EA0804D1F889
:1007C000108008FA07F848EA0408CCF8208004688A
:1007D0004FEA420C06FA0CF7BC430F7907F0030707
:1007E00007FA0CF7274307604C6814F4403F70D0B9
:1007F0003C4C276847F480472760246822F00307B1
:1008000004F480440094384C07EB040CDCF80848EE
:1008100097074FEA177809FA08F7BC43334FB842F5
:1008200002D1002724E054E0314FB84201D1012722
:100830001EE0304FB84201D1022719E02E4FB842D6
:1008400001D1032714E02D4FB84201D104270FE056
:100850002B4FB84201D105270AE02A4FB84201D1F7
:10086000062705E0284FB84201D1072700E00827F6
:1008700007FA08F72743CCF80878DAF8004057461B
:10088000D1F804C09C435FEACC2C00D51C433C60EB
:10089000DBF800405F46D1F804C09C435FEA8C2C33
:1008A00000D51C433C60DEF800407746D1F804C018
:1008B0009C435FEA8C3C00D51C433C60084F083FDA
:1008C0003C68D1F804C09C435FEACC3C00D51C4393
:1008D0003C60521C102AFFF42FAFBDE8F88F0000D7
:1008E000083C014044380240003001400000024012
:1008F0000004024000080240000C024000100240C8
:100900000014024000180240001C0240426921EA23
:1009100002030A4043EA0241816170470AB18161E2
:1009200070470904FBE70000014880687047000039
:1009300014000020024881680278114481607047E9
:10094000140000200B4810B5016841F400710160EB
:10095000016841F480610160016841F480710160C7
:10096000032000F06FF80F2000F006F800F024F8E4
:10097000002010BD003C024070B50D4D04464FF400
:100980007A712878B1FBF0F00A490968B1FBF0F000
:1009900000F03AFB48B9102C07D200222146501E25
:1009A00000F030F800206C6070BD012070BD0000C8
:1009B00014000020200000200A4808B5016841F416
:1009C00080410160006800F4804000900548001FED
:1009D000016841F080510160006800F08050009093
:1009E00008BD000044380240002809DB00F01F0267
:1009F000012191404009800000F1E020C0F8001181
:100A000070470000F0B40E4B1B680C46C3F3022382
:100A1000C3F10705042D00D90425191D072901D2AA
:100A2000002300E0DB1E012606FA05F1491E2140E5
:100A300099409E40761E16403143F0BC01F005B847
:100A40000CED00E0064900F0070208684FF6FF03CE
:100A5000184040EA0220034A104308607047000033
:100A60000CED00E00000FA052DE9F0470E46050008
:100A700065D0DFF81481D8F80000F7B200F0070065
:100A8000B04207D288F80070D8F8000000F00700E4
:100A9000B04254D128683D4C810712D5400703D598
:100AA000206840F4E05020602878000703D52068D3
:100AB00040F4604020602068A96820F0F0000843FE
:100AC00020602878C0072DD030496868083901288F
:100AD00012D0022813D0032811D0096889070029F1
:100AE0002DDA216821F0030101432160FFF71CFF8B
:100AF000814641F2883A0EE009688903EFE7096808
:100B00008901ECE7FFF710FFA0EB0901514502D97D
:100B10000320BDE8F0872068696800F00C00B0EBA6
:100B2000810FEFD1D8F80010404601F00701B14223
:100B300007D90770006800F00700B04201D001201B
:100B4000E7E72878400705D52068E96820F4E050F9
:100B5000084320602878000706D52068296920F41A
:100B6000604040EAC100206000F038F82168084A7F
:100B7000C1F30311515CC84006490860064800688B
:100B8000FFF7FAFE0020C4E7003C024008380240AC
:100B90007E7E00082000002018000020044805493F
:100BA00000680968044AC1F38221515CC84070475B
:100BB00020000020083802408E7E000804480549C5
:100BC00000680968044AC1F34231515CC84070476B
:100BD00020000020083802408E7E0008154810B51D
:100BE000006810F00C02144813D04110042A0FD0F2
:100BF000082A0ED10F4C241F2268236802F03F02FE
:100C00005B0207D52068C0F38810A0FB010106E055
:100C1000084610BD2168C1F38811A1FB0001002323
:100C2000FFF723FB2168C1F30141491C4900B0FBD8
:100C3000F1F010BD083802400024F4002DE9F84F0F
:100C400004006ED02078DFF84C93C007A9F10405AA
:100C50004AD009F104000168C1F38101012908D0DB
:100C60000068C0F3810002280AD1D9F800004002D0
:100C700006D52868800337D560680028E1D033E0C6
:100C80006068B0F5803F10D0B0F5A02F286810D074
:100C900020F480302860286820F480202860606874
:100CA000A8B1FFF741FE06460DE0286840F4803009
:100CB000F4E740F480202860F7E700BFFFF734FE38
:100CC000801B642873D828688003F7D50CE0FFF7F1
:100CD0002BFE064605E000BFFFF726FE801B6428BA
:100CE000F0D828688003F7D42078DFF8AC8280073A
:100CF0004FF0000A3ED5A748001D016811F00C0F07
:100D000008D00068C0F3810002280BD1D9F8000098
:100D1000400207D42868800716D5E068012800D172
:100D200012E033E1E068B8B10120C8F80000FFF735
:100D3000FBFD064605E000BFFFF7F6FD801B02281D
:100D4000C0D828688007F7D52868216920F0F80006
:100D500040EAC10028600DE0C8F800A0FFF7E4FDFC
:100D6000064604E0FFF7E0FD801B02281FD8286834
:100D70008007F7D42078000722D5864F874861691D
:100D8000703771B101210160FFF7CEFD064604E026
:100D9000FFF7CAFD801B022809D838688007F7D5FD
:100DA0000EE0C0F800A0FFF7BFFD064605E082E0B8
:100DB000FFF7BAFD801B02287DD838688007F7D47A
:100DC0002078400768D5DFF8CCB100270BF13C0B49
:100DD000DBF80000C0000BD4DBF8001041F08051BC
:100DE000CBF80010DBF80000012700F080500090E5
:100DF0006B4E3068C00510D4306840F480703060AD
:100E0000FFF792FD009005E0FFF78EFD0099401A74
:100E1000022850D83068C005F6D55E4EA0686C3602
:100E200001280FD00528306810D020F00100306074
:100E3000306820F004003060A068B8B1FFF774FD9E
:100E400000900FE0306840F00100F4E740F004004B
:100E50003060F7E7FFF768FD0099411A41F28830EA
:100E6000814266D830688007F4D50EE0FFF75CFD5C
:100E7000009007E0FFF758FD0099411A41F28830D1
:100E8000814256D830688007F4D42FB1DBF80010C7
:100E900021F08051CBF80010A069C8B33D49091D6D
:100EA0000968C1F3810102294AD00228504607D0BF
:100EB000C8F8600000E03CE0FFF736FD04463BE088
:100EC0004746C8F86000FFF72FFD064605E000BF63
:100ED000FFF72AFD801B02282BD828688001F7D451
:100EE000D4E907010843A16A2E4A490802EB0141EF
:100EF000626A41EA8211084394F82C1040EA0161C9
:100F0000C9F8001001203866FFF70EFD044606E020
:100F10003EE000BFFFF708FD001B022809D8286843
:100F20008001F7D534E000BFFFF7FEFC001B02286C
:100F300002D90320BDE8F88F28688001F4D427E0A7
:100F40000128F7D0D9F80000E26900F4800191424D
:100F50001CD1226A00F03F01914217D147F6C071BF
:100F6000626A0140B1EB821F10D1A26A4FF0FF33D9
:100F700000F4403103EB5202B1EB024F06D194F87A
:100F80002C1000F07060B0EB016F01D00120D1E7B0
:100F90000020CFE70438024000004742800E47425D
:100FA000007000400000FFFF70B515460E460400BB
:100FB00003D094F8490010B107E0012070BD002073
:100FC00084F84800204600F01DF804F1080120686C
:100FD000FFF790FA3146A2682068FFF7BFFAD4E91C
:100FE00001022946236BFFF767FA2168A06851F8D0
:100FF000202042F0010241F82020012084F849001D
:10100000002070BDFFF736BB10B5401EB0F1807FE9
:1010100001D3012010BD4FF0E02460610F21601763
:1010200000F013FD0020A06107202061002010BD0A
:1010300070477047F8B5016804460868CA684B698C
:1010400010F00F0F4FF0000559D003F0010602F425
:101050009077374365D0C10705D0D10503D5616CC2
:1010600041F001016164410705D5D90703D0616CE6
:1010700041F002016164810705D5D90703D0616C95
:1010800041F004016164010707D502F020013143FA
:1010900003D0616C41F008016164616C00293AD0B1
:1010A000800604D5900602D5204600F069FB206832
:1010B0004069616CC0F38010090700D460B320461A
:1010C00000F037FB20684069400621D520681430C5
:1010D00050E8001F21F0400140E80012002AF5D13D
:1010E000E06BA8B172490165E06BFFF79EFA00283A
:1010F00011D0E06B016D01B0BDE8F04008478306F8
:101100000FD593060DD52046BDE8F84000F038BB5A
:101110002046FFF78EFFF8BD2046FFF78AFF656483
:10112000F8BD266B2023012E7ED1C6067CD5D606BF
:101130007AD508684868009048694FF00206400672
:101140004DD5E26B106840684FF480770004000CC6
:101150003AD0A18D814237D9E085D069B8422DD0EF
:1011600020680C3050E8001F21F4807140E8001224
:10117000002AF5D12068143050E8001F21F0010149
:1011800040E80012002AF5D12068143050E8001F12
:1011900021F0400140E80012002AF5D184F84230E5
:1011A000256320680C3050E8001F21F0100140E852
:1011B0000012002AF5D1E06BFFF7EEF96663A08D0F
:1011C000E18D401A81B206E0A18D8142A8D1D0699B
:1011D000B842A5D166632046FFF72AFFF8BDA08D6F
:1011E000E18D401A81B2E08D0028F7D00029F5D0BA
:1011F00020680C3050E8002F22F4907240E800275D
:10120000002FF5D12068143050E8002F22F00102A1
:1012100040E80027002FF5D184F84230256320688C
:101220000C3050E8002F00E006E022F0100240E809
:101230000023002BF3D1CDE705062BD5150629D5C4
:1012400094F841002128C9D1A068B0F5805F01D190
:101250002069B0B1206A411C216221680078486091
:10126000E08C401E0004000CE084B7D12068C16807
:1012700021F08001C1602068C16841F04001C16077
:10128000F8BD206A0088C0F308004860206A801C0E
:101290002062E5E74006F3D55006F1D5CA6820463E
:1012A00022F04002CA6084F8413000F003F9F8BD32
:1012B0002517000870B5040004D094F841000025FB
:1012C00010B106E0012070BD84F84050204600F0C7
:1012D00023F8242084F841002068C16821F40051DB
:1012E000C160204600F0AEFA2068016921F4904107
:1012F00001612068416921F02A0141612068C168CB
:1013000041F40051C1606564202084F8410084F8F4
:1013100042006563002070BD10B586B004461421FC
:101320006846FFF725F817492068884228D11648F3
:10133000016841F010010160006800F010000590A4
:1013400011481438016841F0010101600068012171
:1013500000F0010005904FF4C06000900220CDE93C
:10136000010103900720049069460848FFF7D6F969
:10137000002203212520FFF745FB2520FFF734FB42
:1013800006B010BD00100140443802400000024089
:1013900090F84230202B01D00220704721B11AB1C1
:1013A0000023036300F0D4BA0120704730B4006812
:1013B0001549884225D1154841880A0416D40246A9
:1013C0004C0412784FF0000304D50A2A0DD141F4E1
:1013D000004114E00D2A10D0C1F30D040C4D491C3E
:1013E00089B22A554180C72900D943800848012283
:1013F00030BC0649C830FFF7CBBF41F48041418083
:10140000F4E730BC704700000010014004000020E9
:10141000840000202DE9F843044690F841009846E6
:1014200016460D46202802D00220BDE8F88385B17B
:101430007EB100206064212084F84100FFF774FA37
:10144000A6848146E684A0682027B0F5805F02D09C
:1014500003E00120E9E7206910B12E4600250EE0E7
:1014600000260CE08021204600F08DFAA8B9C6B114
:1014700016F8010B21684860E08C401EE084E08C87
:101480004B464FF00002CDF800800028EAD14FF023
:101490004001204600F077FA40B184F84170032003
:1014A000C3E735F8020BC0F30800E3E784F84170A6
:1014B0000020BAE77047FEE770B586B01421684691
:1014C000FEF756FF1B480025016841F0200101602E
:1014D000016801F020010591016841F0800101607F
:1014E000016801F080010591016841F0010101608E
:1014F0000068114E00F00100059001224FF4C06118
:101500003046FFF70BFA70150124CDE900040220E4
:10151000CDE9024069463046FFF700F9A002CDE967
:10152000000469463046CDE90245FFF7F7F806B0FA
:1015300070BD0000303802400014024010B58EB07B
:101540001C216846FEF714FF1C2107A8FEF710FFB8
:101550001B484FF02041102201601A4941600621CA
:1015600081600021C160C0E904128161C161130280
:101570000162C0E909139302C0E90B13416381635F
:101580004164022000900F20CDE9010203AC112339
:1015900084E80E0004240691CDE9074009240DF1EA
:1015A000280C0D9109948CE80D0007AA694604489F
:1015B000FFF7FAFC002801D0FEF77CFF0EB010BD4B
:1015C00094010020040100A070B586B01421684683
:1015D000FEF7CEFE25480024016841F0800101603D
:1015E000016801F080010591016841F0200101606E
:1015F000016801F020010591016841F010010160CE
:10160000016801F010010591016841F002010160DB
:10161000016801F002010591016841F008010160D3
:10162000016801F008010591016841F001010160C4
:10163000016801F001010591016841F0400101607C
:101640000068012200F04000094ED50305902946AC
:101650003046FFF763F901200095CDE901046946A2
:1016600030460394FFF75AF806B070BD3038024098
:1016700000040240FEE7FEE770477047FFF75AB9E3
:1016800030B593B030216846FEF772FE14210CA8E5
:10169000FEF76EFE1D480025016841F08051016093
:1016A000006800F0805011901948016841F48041B1
:1016B00001600068022400F4804011900120039032
:1016C00010200490009406940820CDE90750A8202B
:1016D000CDE9090404200B906846FFF7AFFA08B182
:1016E00072B6FEE70CA90F2081E831004FF4A0503C
:1016F0000F904FF48050109005210CA8FFF7B4F91B
:10170000002801D072B6FEE713B030BD4038024069
:10171000007000400248016841F4700101607047A8
:1017200088ED00E010B5806B0021C185FFF781FCDA
:1017300010BD01680C3151E8002F22F4907241E88D
:101740000023002BF5D10168143151E8002F22F05D
:10175000010241E80023002BF5D1016B012909D1D9
:1017600001680C3151E8002F22F0100241E80023FB
:10177000002BF5D1202180F8421000210163704731
:1017800008B590F84210222901D0022008BD8268D5
:101790004FF480539A4201D1016921B1816A9A4282
:1017A0001BD04AB10AE00268816A5268C2F308029B
:1017B0000A80816A891C08E0026972B10268526875
:1017C00002F07F020A70816A491C8162C18D491E44
:1017D0000904090CC18503D01BE002685268F1E7D7
:1017E0000168CA6822F02002CA600168CA6822F44F
:1017F0008072CA6001684A6922F001024A612021B0
:1018000080F8421000214163026B012A03D0FFF7E8
:10181000CDFD002008BD016301680C3151E8002FA7
:1018200022F0100241E80023002BF5D101680A687C
:10183000D20602D50A6849680091818DFFF7F8FB4E
:10184000E7E7000070B5044600680169E26821F42A
:101850004051114301612169A068E269084361694F
:10186000114308432168CA6849F20C639A43024352
:10187000CA6020684169A26921F440711143416145
:1018800031492068884202D03049884202D1FFF7AE
:1018900095F901E0FFF782F9E26900231921642537
:1018A0003226B2F5004F626828D0A0FB0101930FE9
:1018B0009200FEF7DAFC0146B0FBF5F06FF018027B
:1018C000504301EB800006EB0010B0FBF5F000F098
:1018D000F002B1FBF5F002EB0012B1FBF5F06FF096
:1018E0001803584301EB800006EB0010B0FBF5F045
:1018F00000F00F0021681044886070BDA0FB01015A
:1019000092185B41FEF7B1FC0146B0FBF5F0020115
:10191000B1FBF5F06FF01803584301EB800006EBC4
:10192000C000B0FBF5F000F0F80002EB4002B1FBA4
:10193000F5F0584301EB800006EBC000B0FBF5F07A
:1019400000F00700D6E7000000100140001401403D
:1019500081628285C28500214164222180F8421083
:10196000016921B10168CA6842F48072CA600168E5
:101970004A6942F001024A610068C16841F02001F1
:10198000C160002070472DE9F843984617460D4680
:101990000446089E24E0701C22D0FEF7C5FFA0EB91
:1019A0000800B0421AD8CEB12068C168490717D5DF
:1019B000802D15D0402D13D00168C94309070FD4DD
:1019C00001680025406800902046FFF7B2FE08201D
:1019D000606484F840500120BDE8F8830320FBE7F1
:1019E0002068006835EA000004D00020B842D2D058
:1019F0000020F1E70120F9E70148FFF71BBB0000D9
:101A00004C0100200E4810B50C4901604FF4E13143
:101A10004160002181600C22C160C0E90412816133
:101A2000C161FFF747FC08B1FEF744FDBDE8104077
:101A3000012204490248FFF7ABBC0000001001403E
:101A40004C01002004000020FEE70907090E0028D1
:101A500004DB00F1E02080F80014704700F00F0074
:101A600000F1E02080F8141D7047704703490A68B0
:101A70005206FCD5C2B24A60704700000010014017
:101A800070B50A490646002408884D88214645431A
:101A9000204602F0EDFE03F03FF84FF0D84002E0A0
:101AA000A0F88060641CAC42FAD370BD74000020C2
:101AB0002DE9F04F38492C260A46887192884FF458
:101AC000305A4FF4285B41F6631E2B274FF02A0C47
:101AD0004FF0F00845F210594FF448754FF4A074D8
:101AE0004FF4F07358B10C80A1F802804A4530D110
:101AF000A1F808A0A1F80AB03802888141E0A1F855
:101B000000804C804A4507D1A1F808A0A1F80AB08E
:101B10004FF42C50888105E072450E8105D14F812C
:101B2000A1F80CC00B804D8002E0A1F80AC08F81A3
:101B3000A2F5A640103803D0A2F5EE40963801D1A8
:101B40000C804B80A2F5184006381FD10B804D80C9
:101B50001CE0724511D0A2F5184006380DD00E8158
:101B6000A1F80AC0A1F80C70A2F5A64010380BD05D
:101B7000A2F5EE40963807D008E00E81A1F80AC021
:101B80008F810D804B80EFE70B804C80BDE8F04FDC
:101B9000002002F0ABBD00007400002010B5144618
:101BA00002F066FE02F0B8FF4FF0D840A0F8804087
:101BB00010BD10B5CF2002F0A3FF002002F094FF6B
:101BC000C12002F091FF302002F08EFFED2002F0E4
:101BD00097FF642002F088FF032002F085FF1220A7
:101BE00002F082FF812002F07FFFE82002F088FFF0
:101BF000852002F079FF102002F076FF7A2002F0B3
:101C000073FFCB2002F07CFF392002F06DFF2C2007
:101C100002F06AFF002002F067FF342002F064FF48
:101C2000022002F061FFF72002F06AFF202002F09C
:101C30005BFFEA2002F064FF002002F055FF002065
:101C400002F052FFC02002F05BFF1B2002F04CFFAD
:101C5000C12002F055FF012002F046FFC52002F02E
:101C60004FFF302002F040FF302002F03DFFC72040
:101C700002F046FFB72002F037FF362002F040FFA7
:101C8000482002F031FF3A2002F03AFF552002F0DE
:101C90002BFFB12002F034FF002002F025FF1A20B4
:101CA00002F022FFB62002F02BFF0A2002F01CFFF8
:101CB000A22002F019FFF22002F022FF002002F021
:101CC00013FF262002F01CFF012002F00DFFE02090
:101CD00002F016FF0F2002F007FF2A2002F004FF97
:101CE000282002F001FF082002F0FEFE0E2002F084
:101CF000FBFE082002F0F8FE542002F0F5FEA920B9
:101D000002F0F2FE432002F0EFFE0A2002F0ECFEA9
:101D10000F2002F0E9FE002002F0E6FE002002F0B3
:101D2000E3FE002002F0E0FE002002F0DDFEE120F4
:101D300002F0E6FE002002F0D7FE152002F0D4FEED
:101D4000172002F0D1FE072002F0CEFE112002F093
:101D5000CBFE062002F0C8FE2B2002F0C5FE562066
:101D600002F0C2FE3C2002F0BFFE052002F0BCFEE5
:101D7000102002F0B9FE0F2002F0B6FE3F2002F064
:101D8000B3FE3F2002F0B0FE0F2002F0ADFE2B208C
:101D900002F0B6FE002002F0A7FE002002F0A4FE32
:101DA000012002F0A1FE3F2002F09EFE2A2002F058
:101DB000A7FE002002F098FE002002F095FE002011
:101DC00002F092FEEF2002F08FFE112002F098FE4A
:101DD0007820FEF73DFCBDE81040292002F090BEBF
:101DE00010B5FF2002F08CFEFF2002F07DFE98204F
:101DF00002F07AFE062002F077FEBC2002F080FEA0
:101E0000012002F071FE0F2002F06EFE612002F050
:101E10006BFEFF2002F068FE012002F065FE01204B
:101E200002F062FE0B2002F05FFE102002F05CFE6A
:101E3000372002F059FE632002F056FEFF2002F028
:101E400053FEFF2002F050FE012002F04DFE012063
:101E500002F04AFE002002F047FE002002F044FE9D
:101E6000FF2002F041FE522002F03EFE012002F06F
:101E70003BFE002002F038FE402002F035FEBD207F
:101E800002F03EFE012002F02FFE232002F02CFE85
:101E9000452002F029FE672002F026FE012002F014
:101EA00023FE232002F020FE452002F01DFE6720C5
:101EB00002F01AFEBE2002F023FE002002F014FE03
:101EC000012002F011FEAB2002F00EFE602002F0B5
:101ED0000BFE222002F008FE222002F005FE222046
:101EE00002F002FE222002F0FFFD222002F0FCFDA3
:101EF000C72002F005FE362002F0F6FDED2002F0CC
:101F0000FFFD7F2002F0F0FD0F2002F0EDFDC0206C
:101F100002F0F6FD0F2002F0E7FD0B2002F0E4FDD9
:101F20000A2002F0E1FDFC2002F0EAFD082002F0A8
:101F3000DBFDDF2002F0E4FD002002F0D5FD0020F3
:101F400002F0D2FD002002F0CFFD002002F0CCFD17
:101F5000002002F0C9FD202002F0C6FDF32002F0AF
:101F6000CFFD742002F0C0FDB42002F0C9FD0020B6
:101F700002F0BAFD002002F0B7FD002002F0B4FD2F
:101F8000F72002F0BDFD822002F0AEFDB12002F08C
:101F9000B7FD002002F0A8FD132002F0A5FD1320DC
:101FA00002F0A2FDF22002F0ABFD802002F09CFDC9
:101FB000042002F099FD402002F096FD282002F056
:101FC00093FDC12002F09CFD172002F08DFD8820BA
:101FD00002F08AFD882002F087FD202002F084FDB7
:101FE000E02002F08DFD002002F07EFD0A2002F0CC
:101FF0007BFD122002F078FD102002F075FD0E200E
:1020000002F072FD202002F06FFDCC2002F06CFD8A
:10201000072002F069FD062002F066FD0B2002F0A9
:1020200063FD0E2002F060FD0F2002F05DFD0D202B
:1020300002F05AFD152002F057FD102002F054FD69
:10204000002002F051FDE12002F05AFD002002F0D4
:102050004BFD0B2002F048FD132002F045FD0D2042
:1020600002F042FD0E2002F03FFD1B2002F03CFD7D
:10207000712002F039FD062002F036FD062002F044
:1020800033FD0A2002F030FD0F2002F02DFD0E205E
:1020900002F02AFD0F2002F027FD152002F024FD9A
:1020A0000C2002F021FD002002F01EFD2A2002F08B
:1020B00027FD002002F018FD002002F015FD012090
:1020C00002F012FDDF2002F00FFD2B2002F018FDC0
:1020D000002002F009FD002002F006FD032002F0BE
:1020E00003FD1F2002F000FD3A2002F009FD5520FB
:1020F00002F0FAFC362002F003FD002002F0F4FCAE
:10210000112002F0FDFC7820FEF7A2FA292002F04F
:10211000F7FC7820FEF79CFABDE810402C2002F076
:10212000EFBC10B5ED2002F0EBFC012002F0DCFC6E
:10213000FE2002F0D9FCEE2002F0E2FCDE2002F0EC
:10214000D3FC212002F0D0FCF12002F0D9FC0120C8
:1021500002F0CAFCDF2002F0D3FC102002F0C4FC25
:10216000C42002F0CDFC8F2002F0BEFCC62002F09D
:10217000C7FC002002F0B8FCE22002F0B5FCE2202F
:1021800002F0B2FCE22002F0AFFCBF2002F0B8FC8B
:10219000AA2002F0A9FCB02002F0B2FC0D2002F04F
:1021A000A3FC002002F0A0FC0D2002F09DFC00200A
:1021B00002F09AFC112002F097FC002002F094FC3F
:1021C000192002F091FC002002F08EFC212002F088
:1021D0008BFC002002F088FC2D2002F085FC002002
:1021E00002F082FC3D2002F07FFC002002F07CFC2B
:1021F0005D2002F079FC002002F076FC5D2002F008
:1022000073FC002002F070FCB12002F079FC802009
:1022100002F06AFC002002F067FC8B2002F064FCF4
:10222000002002F061FC962002F05EFC002002F02B
:102230005BFCB22002F064FC002002F055FC0020A0
:1022400002F052FC022002F04FFC002002F04CFC95
:10225000032002F049FC002002F046FCB32002F00B
:102260004FFC002002F040FC002002F03DFC00206A
:1022700002F03AFC002002F037FC002002F034FCAF
:10228000002002F031FC002002F02EFC002002F0C1
:102290002BFC002002F028FC002002F025FC00208E
:1022A00002F022FC002002F01FFC002002F01CFCC7
:1022B000002002F019FC002002F016FC002002F0C1
:1022C00013FC002002F010FC002002F00DFC0020A6
:1022D00002F00AFC002002F007FC002002F004FCDF
:1022E000002002F001FC002002F0FEFB002002F0C2
:1022F000FBFBB42002F004FC8B2002F0F5FB002075
:1023000002F0F2FB962002F0EFFB002002F0ECFB63
:10231000A12002F0E9FB002002F0E6FBB52002F06C
:10232000EFFB022002F0E0FB002002F0DDFB0320C7
:1023300002F0DAFB002002F0D7FB042002F0D4FB0D
:10234000002002F0D1FBB62002F0DAFB002002F000
:10235000CBFB002002F0C8FBB72002F0D1FB00202D
:1023600002F0C2FB002002F0BFFB3F2002F0BCFBEA
:10237000002002F0B9FB5E2002F0B6FB002002F064
:10238000B3FB642002F0B0FB002002F0ADFB8C2018
:1023900002F0AAFB002002F0A7FBAC2002F0A4FB95
:1023A000002002F0A1FBDC2002F09EFB002002F0E6
:1023B0009BFB702002F098FB002002F095FB902020
:1023C00002F092FB002002F08FFBEB2002F08CFB6E
:1023D000002002F089FBDC2002F086FB002002F0E6
:1023E00083FBB82002F08CFB002002F07DFB002074
:1023F00002F07AFB002002F077FB002002F074FB71
:10240000002002F071FB002002F06EFB002002F0C1
:102410006BFB002002F068FBBA2002F071FB242065
:1024200002F062FB002002F05FFB002002F05CFB88
:10243000002002F059FBC12002F062FB202002F0D4
:1024400053FB002002F050FB542002F04DFB002013
:1024500002F04AFBFF2002F047FB002002F044FBA1
:10246000C22002F04DFB0A2002F03EFB002002F0E9
:102470003BFB042002F038FB002002F035FBC320B8
:1024800002F03EFB3C2002F02FFB002002F02CFB70
:102490003A2002F029FB002002F026FB392002F04E
:1024A00023FB002002F020FB372002F01DFB002060
:1024B00002F01AFB3C2002F017FB002002F014FB94
:1024C000362002F011FB002002F00EFB322002F059
:1024D0000BFB002002F008FB2F2002F005FB002080
:1024E00002F002FB2C2002F0FFFA002002F0FCFABE
:1024F000292002F0F9FA002002F0F6FA262002F074
:10250000F3FA002002F0F0FA242002F0EDFA0020A5
:1025100002F0EAFA242002F0E7FA002002F0E4FADE
:10252000232002F0E1FA002002F0DEFA3C2002F063
:10253000DBFA002002F0D8FA362002F0D5FA0020AB
:1025400002F0D2FA322002F0CFFA002002F0CCFAE8
:102550002F2002F0C9FA002002F0C6FA2C2002F067
:10256000C3FA002002F0C0FA292002F0BDFA0020D0
:1025700002F0BAFA262002F0B7FA002002F0B4FA0C
:10258000242002F0B1FA002002F0AEFA242002F07A
:10259000ABFA002002F0A8FA232002F0A5FA0020EE
:1025A00002F0A2FAC42002F0ABFA622002F09CFA18
:1025B000002002F099FA052002F096FA002002F0BD
:1025C00093FA842002F090FA002002F08DFAF020B5
:1025D00002F08AFA002002F087FA182002F084FA4A
:1025E000002002F081FAA42002F07EFA002002F01E
:1025F0007BFA182002F078FA002002F075FA5020D9
:1026000002F072FA002002F06FFA0C2002F06CFA6D
:10261000002002F069FA172002F066FA002002F0AA
:1026200063FA952002F060FA002002F05DFAF320D0
:1026300002F05AFA002002F057FAE62002F054FAAB
:10264000002002F051FAC52002F05AFA322002F0BE
:102650004BFA002002F048FA442002F045FA00202C
:1026600002F042FA652002F03FFA002002F03CFA44
:10267000762002F039FA002002F036FA882002F0C3
:1026800033FA002002F030FAC62002F039FA202096
:1026900002F02AFA002002F027FA172002F024FAAA
:1026A000002002F021FA012002F01EFA002002F0C0
:1026B0001BFAC72002F024FA002002F015FA0020CD
:1026C00002F012FA002002F00FFA002002F00CFAD9
:1026D000C82002F015FA002002F006FA002002F0ED
:1026E00003FA002002F000FA002002F0FDF9C920F0
:1026F00002F006FA002002F0F7F9002002F0F4F9E7
:10270000002002F0F1F9002002F0EEF9002002F0C2
:10271000EBF9002002F0E8F9002002F0E5F90020D2
:1027200002F0E2F9002002F0DFF9002002F0DCF90B
:10273000002002F0D9F9002002F0D6F9002002F0C2
:10274000D3F9002002F0D0F9002002F0CDF90020EA
:1027500002F0CAF9E02002F0D3F9162002F0C4F921
:10276000002002F0C1F91C2002F0BEF9002002F0A6
:10277000BBF9212002F0B8F9002002F0B5F93620AB
:1027800002F0B2F9002002F0AFF9462002F0ACF9F5
:10279000002002F0A9F9522002F0A6F9002002F070
:1027A000A3F9642002F0A0F9002002F09DF97A203C
:1027B00002F09AF9002002F097F98B2002F094F9C8
:1027C000002002F091F9992002F08EF9002002F029
:1027D0008BF9A82002F088F9002002F085F9B920D1
:1027E00002F082F9002002F07FF9C42002F07CF9A7
:1027F000002002F079F9CA2002F076F9002002F0F8
:1028000073F9D22002F070F9002002F06DF9D9209E
:1028100002F06AF9002002F067F9E02002F064F9A2
:10282000002002F061F9F32002F05EF9002002F0CE
:102830005BF9E12002F064F9162002F055F900205E
:1028400002F052F91C2002F04FF9002002F04CF97E
:10285000222002F049F9002002F046F9362002F069
:1028600043F9002002F040F9452002F03DF9002034
:1028700002F03AF9522002F037F9002002F034F960
:10288000642002F031F9002002F02EF97A2002F0E3
:102890002BF9002002F028F98B2002F025F9002006
:1028A00002F022F9992002F01FF9002002F01CF931
:1028B000A82002F019F9002002F016F9B92002F060
:1028C00013F9002002F010F9C42002F00DF90020E5
:1028D00002F00AF9CA2002F007F9002002F004F918
:1028E000D22002F001F9002002F0FEF8D82002F018
:1028F000FBF8002002F0F8F8E02002F0F5F80020E4
:1029000002F0F2F8F32002F0EFF8002002F0ECF809
:10291000E22002F0F5F8052002F0E6F8002002F0CF
:10292000E3F80B2002F0E0F8002002F0DDF81B20B5
:1029300002F0DAF8002002F0D7F8342002F0D4F8E0
:10294000002002F0D1F8442002F0CEF8002002F07E
:10295000CBF84F2002F0C8F8002002F0C5F8612043
:1029600002F0C2F8002002F0BFF8792002F0BCF8B3
:10297000002002F0B9F8882002F0B6F8002002F03A
:10298000B3F8972002F0B0F8002002F0ADF8A620CE
:1029900002F0AAF8002002F0A7F8B72002F0A4F88D
:1029A000002002F0A1F8C22002F09EF8002002F000
:1029B0009BF8C72002F098F8002002F095F8D1208B
:1029C00002F092F8002002F08FF8D62002F08CF886
:1029D000002002F089F8DD2002F086F8002002F0E5
:1029E00083F8F32002F080F8002002F07DF8E32065
:1029F00002F086F8052002F077F8002002F074F863
:102A00000A2002F071F8002002F06EF81C2002F09B
:102A10006BF8002002F068F8332002F065F800201F
:102A200002F062F8442002F05FF8002002F05CF847
:102A3000502002F059F8002002F056F8622002F00F
:102A400053F8002002F050F8782002F04DF80020F2
:102A500002F04AF8882002F047F8002002F044F81B
:102A6000972002F041F8002002F03EF8A62002F084
:102A70003BF8002002F038F8B72002F035F80020CB
:102A800002F032F8C22002F02FF8002002F02CF8F9
:102A9000C72002F029F8002002F026F8D12002F029
:102AA00023F8002002F020F8D52002F01DF80020C5
:102AB00002F01AF8DD2002F017F8002002F014F8F6
:102AC000F32002F011F8002002F00EF8E42002F0EA
:102AD00017F8012002F008F8002002F005F80120A4
:102AE00002F002F8002001F0FFFF022001F0FCFFDD
:102AF000002001F0F9FF2A2001F0F6FF002001F08C
:102B0000F3FF3C2001F0F0FF002001F0EDFF4B202F
:102B100001F0EAFF002001F0E7FF5D2001F0E4FF93
:102B2000002001F0E1FF742001F0DEFF002001F041
:102B3000DBFF842001F0D8FF002001F0D5FF9320B7
:102B400001F0D2FF002001F0CFFFA22001F0CCFF66
:102B5000002001F0C9FFB32001F0C6FF002001F002
:102B6000C3FFBE2001F0C0FF002001F0BDFFC42064
:102B700001F0BAFF002001F0B7FFCD2001F0B4FF53
:102B8000002001F0B1FFD32001F0AEFF002001F0E2
:102B9000ABFFDD2001F0A8FF002001F0A5FFF3202E
:102BA00001F0A2FF002001F09FFFE52001F0A8FF47
:102BB000002001F099FF002001F096FF002001F0B5
:102BC00093FF002001F090FF022001F08DFF002014
:102BD00001F08AFF292001F087FF002001F084FF27
:102BE0003C2001F081FF002001F07EFF4B2001F02E
:102BF0007BFF002001F078FF5D2001F075FF0020D1
:102C000001F072FF742001F06FFF002001F06CFFF3
:102C1000842001F069FF002001F066FF932001F09D
:102C200063FF002001F060FFA22001F05DFF0020A3
:102C300001F05AFFB32001F057FF002001F054FFCC
:102C4000BE2001F051FF002001F04EFFC42001F032
:102C50004BFF002001F048FFCD2001F045FF002090
:102C600001F042FFD32001F03FFF002001F03CFFC4
:102C7000DC2001F039FF002001F036FFF32001F0E5
:102C800033FF002001F030FFE62001F039FF112072
:102C900001F02AFF002001F027FF342001F024FF7B
:102CA000002001F021FF562001F01EFF002001F05E
:102CB0001BFF762001F018FF002001F015FF7720A0
:102CC00001F012FF002001F00FFF662001F00CFF61
:102CD000002001F009FF882001F006FF002001F02C
:102CE00003FF992001F000FF002001F0FDFEBB2052
:102CF00001F0FAFE002001F0F7FE992001F0F4FE49
:102D0000002001F0F1FE662001F0EEFE002001F04F
:102D1000EBFE552001F0E8FE002001F0E5FE552015
:102D200001F0E2FE002001F0DFFE452001F0DCFEB4
:102D3000002001F0D9FE432001F0D6FE002001F072
:102D4000D3FE442001F0D0FE002001F0CDFEE720AC
:102D500001F0D6FE322001F0C7FE002001F0C4FED3
:102D6000552001F0C1FE002001F0BEFE762001F0EA
:102D7000BBFE002001F0B8FE662001F0B5FE002089
:102D800001F0B2FE672001F0AFFE002001F0ACFEC2
:102D9000672001F0A9FE002001F0A6FE872001F0C7
:102DA000A3FE002001F0A0FE992001F09DFE00206E
:102DB00001F09AFEBB2001F097FE002001F094FE86
:102DC000992001F091FE002001F08EFE772001F0A5
:102DD0008BFE002001F088FE442001F085FE0020DB
:102DE00001F082FE562001F07FFE002001F07CFE03
:102DF000232001F079FE002001F076FE332001F05F
:102E000073FE002001F070FE452001F06DFE0020F1
:102E100001F06AFEE82001F073FE002001F064FE7C
:102E2000002001F061FE992001F05EFE002001F01B
:102E30005BFE872001F058FE002001F055FE88203F
:102E400001F052FE002001F04FFE772001F04CFE11
:102E5000002001F049FE662001F046FE002001F04E
:102E600043FE882001F040FE002001F03DFEAA2034
:102E700001F03AFE002001F037FEBB2001F034FEE5
:102E8000002001F031FE992001F02EFE002001F01B
:102E90002BFE662001F028FE002001F025FE5520C3
:102EA00001F022FE002001F01FFE552001F01CFE63
:102EB000002001F019FE442001F016FE002001F070
:102EC00013FE442001F010FE002001F00DFE5520FD
:102ED00001F00AFE002001F007FEE92001F010FEDB
:102EE000AA2001F001FE002001F0FEFD002001F00B
:102EF000FBFD002001F0F8FD002001F001FEAA20FA
:102F000001F0F2FDCF2001F0FBFD002001F0ECFD0F
:102F1000002001F0E9FD002001F0E6FD002001F0B5
:102F2000E3FD002001F0E0FD002001F0DDFD0020C8
:102F300001F0DAFD002001F0D7FD002001F0D4FD02
:102F4000002001F0D1FD002001F0CEFD002001F0B5
:102F5000CBFD002001F0C8FD002001F0C5FD0020E0
:102F600001F0C2FD002001F0BFFD002001F0BCFD1A
:102F7000F02001F0C5FD002001F0B6FD502001F069
:102F8000B3FD002001F0B0FD002001F0ADFD0020F8
:102F900001F0AAFDF32001F0B3FD002001F0A4FD33
:102FA000F92001F0ADFD062001F09EFD102001F09A
:102FB0009BFD292001F098FD002001F095FD3A20AD
:102FC00001F09EFD552001F08FFD112001F098FDCC
:102FD0006420FDF73DFB292001F092FD352001F032
:102FE0008FFD002001F080FD512001F089FDFF20C0
:102FF00001F07AFD532001F083FD2C2001F074FDD7
:10300000552001F07DFD822001F06EFDBDE81040ED
:103010002C2001F075BD2DE9F05F4FF4704455216F
:10302000204601F083FD651CAA21284601F07EFDA3
:10303000A61C5221304601F079FDE71C08213846D4
:1030400001F074FD4FF204080121404601F06EFDCD
:103050004FF436433421184601F068FD34214BF219
:10306000016001F063FD34214BF2026001F05EFD6E
:103070004FF430490D21484601F058FD4BF2010A4A
:103080000D21504601F052FD4BF2020B0D21584626
:1030900001F04CFD24214FF4374001F047FD24217D
:1030A0004BF2017001F042FD24214BF2027001F05D
:1030B0003DFD0D214FF4314001F038FD0D214BF263
:1030C000011001F033FD0D214BF2021001F02EFD35
:1030D00024214FF4384001F029FD24214BF6010052
:1030E00001F024FD24214BF6020001F01FFD002118
:1030F0004FF4324001F01AFD24214FF4394001F021
:1031000015FD24214BF6011001F010FD24214BF692
:10311000021001F00BFD05214FF4334001F006FDD4
:1031200005214BF2013001F001FD05214BF2023087
:1031300001F0FCFC34214FF43A4001F0F7FC34215B
:103140004BF6012001F0F2FC34214BF6022001F095
:10315000EDFC0B214FF4354001F0E8FC0B214BF264
:10316000015001F0E3FC0B214BF2025001F0DEFCB8
:1031700000214FF43C4001F0D9FCA3214BF6014063
:1031800001F0D4FC00214BF6024001F0CFFC0021FD
:103190004FF43D4001F0CAFCA3214BF6015001F071
:1031A000C5FC00214BF6025001F0C0FC00214FF499
:1031B0003E4001F0BBFC37214BF6016001F0B6FC4C
:1031C00000214FF4514001F0B1FC37214DF20110C4
:1031D00001F0ACFC00214DF2021001F0A7FC5321DC
:1031E0004DF2031001F0A2FC00214DF2041001F099
:1031F0009DFC79214DF2051001F098FC00214DF263
:10320000061001F093FC97214DF2071001F08EFC9F
:1032100000214DF2081001F089FCB1214DF2091096
:1032200001F084FC00214DF20A1001F07FFCD52151
:103230004DF20B1001F07AFC00214DF20C1001F060
:1032400075FCF4214DF20D1001F070FC01214DF2DE
:103250000E1001F06BFC23214DF20F1001F066FC03
:1032600001214DF2101001F061FC49214DF21110C5
:1032700001F05CFC01214DF2121001F057FC872196
:103280004DF2131001F052FC01214DF2141001F027
:103290004DFCB6214DF2151001F048FC02214DF213
:1032A000161001F043FC00214DF2171001F03EFC16
:1032B00002214DF2181001F039FC3B214DF219109A
:1032C00001F034FC02214DF21A1001F02FFC3D21D7
:1032D0004DF21B1001F02AFC02214DF21C1001F0EE
:1032E00025FC75214DF21D1001F020FC02214DF24C
:1032F0001E1001F01BFCB1214DF21F1001F016FC55
:1033000002214DF2201001F011FCD5214DF22110C7
:1033100001F00CFC03214DF2221001F007FC092101
:103320004DF2231001F002FC03214DF2241001F0B4
:10333000FDFB28214DF2251001F0F8FB03214DF291
:10334000261001F0F3FB52214DF2271001F0EEFBA5
:1033500003214DF2281001F0E9FB6B214DF22910F9
:1033600001F0E4FB03214DF22A1001F0DFFB8D2177
:103370004DF22B1001F0DAFB03214DF22C1001F07D
:10338000D5FBA2214DF22D1001F0D0FB03214DF20F
:103390002E1001F0CBFBBB214DF22F1001F0C6FB2C
:1033A00003214DF2301001F0C1FBC1214DF231106B
:1033B00001F0BCFB03214DF2321001F0B7FBC1213B
:1033C0004DF2331001F0B2FB00214FF4524001F0F6
:1033D000ADFB37214DF2012001F0A8FB00214DF299
:1033E000022001F0A3FB53214DF2032001F09EFBCC
:1033F00000214DF2042001F099FB79214DF20520C6
:1034000001F094FB00214DF2062001F08FFB972183
:103410004DF2072001F08AFB00214DF2082001F057
:1034200085FBB1214DF2092001F080FB00214DF216
:103430000A2001F07BFBD5214DF20B2001F076FB39
:1034400000214DF20C2001F071FBF4214DF20D2012
:1034500001F06CFB01214DF20E2001F067FB2321EE
:103460004DF20F2001F062FB01214DF2102001F01E
:103470005DFB49214DF2112001F058FB01214DF275
:10348000122001F053FB87214DF2132001F04EFB77
:1034900001214DF2142001F049FBB6214DF2152017
:1034A00001F044FB02214DF2162001F03FFB002108
:1034B0004DF2172001F03AFB02214DF2182001F0E5
:1034C00035FB3B214DF2192001F030FB02214DF27A
:1034D0001A2001F02BFB3D214DF21B2001F026FBB1
:1034E00002214DF21C2001F021FB75214DF21D201F
:1034F00001F01CFB02214DF21E2001F017FBB1214F
:103500004DF21F2001F012FB02214DF2202001F0AC
:103510000DFBD5214DF2212001F008FB03214DF2D6
:10352000222001F003FB09214DF2232001F0FEFAD5
:1035300003214DF2242001F0F9FA28214DF2252033
:1035400001F0F4FA03214DF2262001F0EFFA5221A6
:103550004DF2272001F0EAFA03214DF2282001F074
:10356000E5FA6B214DF2292001F0E0FA03214DF23A
:103570002A2001F0DBFA8D214DF22B2001F0D6FA42
:1035800003214DF22C2001F0D1FAA2214DF22D2081
:1035900001F0CCFA03214DF22E2001F0C7FABB2135
:1035A0004DF22F2001F0C2FA03214DF2302001F03C
:1035B000BDFAC1214DF2312001F0B8FA03214DF2DC
:1035C000322001F0B3FAC1214DF2332001F0AEFAFE
:1035D00000214FF4534001F0A9FA37214DF2013098
:1035E00001F0A4FA00214DF2023001F09FFA5321BC
:1035F0004DF2033001F09AFA00214DF2043001F04F
:1036000095FA79214DF2053001F090FA00214DF242
:10361000063001F08BFA97214DF2073001F086FA5F
:1036200000214DF2083001F081FAB1214DF209304C
:1036300001F07CFA00214DF20A3001F077FAD52131
:103640004DF20B3001F072FA00214DF20C3001F016
:103650006DFAF4214DF20D3001F068FA01214DF2BE
:103660000E3001F063FA23214DF20F3001F05EFAC3
:1036700001214DF2103001F059FA49214DF211307B
:1036800001F054FA01214DF2123001F04FFA872176
:103690004DF2133001F04AFA01214DF2143001F0DD
:1036A00045FAB6214DF2153001F040FA02214DF2F3
:1036B000163001F03BFA00214DF2173001F036FAD6
:1036C00002214DF2183001F031FA3B214DF2193050
:1036D00001F02CFA02214DF21A3001F027FA3D21B7
:1036E0004DF21B3001F022FA02214DF21C3001F0A4
:1036F0001DFA75214DF21D3001F018FA02214DF22C
:103700001E3001F013FAB1214DF21F3001F00EFA14
:1037100002214DF2203001F009FAD5214DF221307D
:1037200001F004FA03214DF2223001F0FFF90921E2
:103730004DF2233001F0FAF903214DF2243001F06B
:10374000F5F928214DF2253001F0F0F903214DF271
:10375000263001F0EBF952214DF2273001F0E6F965
:1037600003214DF2283001F0E1F96B214DF22930AF
:1037700001F0DCF903214DF22A3001F0D7F98D2157
:103780004DF22B3001F0D2F903214DF22C3001F033
:10379000CDF9A2214DF22D3001F0C8F903214DF2EF
:1037A0002E3001F0C3F9BB214DF22F3001F0BEF9EC
:1037B00003214DF2303001F0B9F9C1214DF2313021
:1037C00001F0B4F903214DF2323001F0AFF9C1211B
:1037D0004DF2333001F0AAF900214FF4544001F0CA
:1037E000A5F937214DF2014001F0A0F900214DF279
:1037F000024001F09BF953214DF2034001F096F98C
:1038000000214DF2044001F091F979214DF205407B
:1038100001F08CF900214DF2064001F087F9972163
:103820004DF2074001F082F900214DF2084001F00D
:103830007DF9B1214DF2094001F078F900214DF2F6
:103840000A4001F073F9D5214DF20B4001F06EF9F9
:1038500000214DF20C4001F069F9F4214DF20D40C8
:1038600001F064F901214DF20E4001F05FF92321CE
:103870004DF20F4001F05AF901214DF2104001F0D4
:1038800055F949214DF2114001F050F901214DF255
:10389000124001F04BF987214DF2134001F046F937
:1038A00001214DF2144001F041F9B6214DF21540CD
:1038B00001F03CF902214DF2164001F037F90021E8
:1038C0004DF2174001F032F902214DF2184001F09B
:1038D0002DF93B214DF2194001F028F902214DF25A
:1038E0001A4001F023F93D214DF21B4001F01EF971
:1038F00002214DF21C4001F019F975214DF21D40D5
:1039000001F014F902214DF21E4001F00FF9B1212E
:103910004DF21F4001F00AF902214DF2204001F062
:1039200005F9D5214DF2214001F000F903214DF2B6
:10393000224001F0FBF809214DF2234001F0F6F896
:1039400003214DF2244001F0F1F828214DF22540E9
:1039500001F0ECF803214DF2264001F0E7F8522186
:103960004DF2274001F0E2F803214DF2284001F02A
:10397000DDF86B214DF2294001F0D8F803214DF21A
:103980002A4001F0D3F88D214DF22B4001F0CEF802
:1039900003214DF22C4001F0C9F8A2214DF22D4037
:1039A00001F0C4F803214DF22E4001F0BFF8BB2115
:1039B0004DF22F4001F0BAF803214DF2304001F0F2
:1039C000B5F8C1214DF2314001F0B0F803214DF2BC
:1039D000324001F0ABF8C1214DF2334001F0A6F8BE
:1039E00000214FF4554001F0A1F837214DF201506C
:1039F00001F09CF800214DF2025001F097F853219C
:103A00004DF2035001F092F800214DF2045001F004
:103A10008DF879214DF2055001F088F800214DF222
:103A2000065001F083F897214DF2075001F07EF81F
:103A300000214DF2085001F079F8B1214DF2095002
:103A400001F074F800214DF20A5001F06FF8D52111
:103A50004DF20B5001F06AF800214DF20C5001F0CC
:103A600065F8F4214DF20D5001F060F801214DF29E
:103A70000E5001F05BF823214DF20F5001F056F883
:103A800001214DF2105001F051F849214DF2115031
:103A900001F04CF801214DF2125001F047F8872156
:103AA0004DF2135001F042F801214DF2145001F093
:103AB0003DF8B6214DF2155001F038F802214DF2D3
:103AC000165001F033F800214DF2175001F02EF896
:103AD00002214DF2185001F029F83B214DF2195006
:103AE00001F024F802214DF21A5001F01FF83D2197
:103AF0004DF21B5001F01AF802214DF21C5001F05A
:103B000015F875214DF21D5001F010F802214DF20B
:103B10001E5001F00BF8B1214DF21F5001F006F8D4
:103B200002214DF2205001F001F8D5214DF2215033
:103B300000F0FCFF03214DF2225000F0F7FF0921B5
:103B40004DF2235000F0F2FF03214DF2245000F01B
:103B5000EDFF28214DF2255000F0E8FF03214DF242
:103B6000265000F0E3FF52214DF2275000F0DEFF17
:103B700003214DF2285000F0D9FF6B214DF229505E
:103B800000F0D4FF03214DF22A5000F0CFFF8D2129
:103B90004DF22B5000F0CAFF03214DF22C5000F0E3
:103BA000C5FFA2214DF22D5000F0C0FF03214DF2C0
:103BB0002E5000F0BBFFBB214DF22F5000F0B6FF9E
:103BC00003214DF2305000F0B1FFC1214DF23150D0
:103BD00000F0ACFF03214DF2325000F0A7FFC121ED
:103BE0004DF2335000F0A2FF00214FF4564000F098
:103BF0009DFF37214DF2016000F098FF00214DF24A
:103C0000026000F093FF53214DF2036000F08EFF3D
:103C100000214DF2046000F089FF79214DF205602A
:103C200000F084FF00214DF2066000F07FFF972135
:103C30004DF2076000F07AFF00214DF2086000F0BD
:103C400075FFB1214DF2096000F070FF00214DF2C7
:103C50000A6000F06BFFD5214DF20B6000F066FFAB
:103C600000214DF20C6000F061FFF4214DF20D6077
:103C700000F05CFF01214DF20E6000F057FF2321A0
:103C80004DF20F6000F052FF01214DF2106000F084
:103C90004DFF49214DF2116000F048FF01214DF226
:103CA000126000F043FF87214DF2136000F03EFFE9
:103CB00001214DF2146000F039FFB6214DF215607C
:103CC00000F034FF02214DF2166000F02FFF0021BA
:103CD0004DF2176000F02AFF02214DF2186000F04B
:103CE00025FF3B214DF2196000F020FF02214DF22B
:103CF0001A6000F01BFF3D214DF21B6000F016FF23
:103D000002214DF21C6000F011FF75214DF21D6083
:103D100000F00CFF02214DF21E6000F007FFB12100
:103D20004DF21F6000F002FF02214DF2206000F012
:103D3000FDFED5214DF2216000F0F8FE03214DF289
:103D4000226000F0F3FE09214DF2236000F0EEFE48
:103D500003214DF2246000F0E9FE28214DF2256098
:103D600000F0E4FE03214DF2266000F0DFFE522158
:103D70004DF2276000F0DAFE03214DF2286000F0DA
:103D8000D5FE6B214DF2296000F0D0FE03214DF2EB
:103D90002A6000F0CBFE8D214DF22B6000F0C6FEB4
:103DA00003214DF22C6000F0C1FEA2214DF22D60E6
:103DB00000F0BCFE03214DF22E6000F0B7FEBB21E7
:103DC0004DF22F6000F0B2FE03214DF2306000F0A2
:103DD000ADFEC1214DF2316000F0A8FE03214DF28D
:103DE000326000F0A3FEC1214DF2336000F09EFE70
:103DF0005521204600F09AFEAA21284600F096FEA2
:103E00005221304600F092FE0821384600F08EFE26
:103E10000021404600F08AFE0021484600F086FE60
:103E20000521504600F082FE0221584600F07EFE39
:103E300005214BF2030000F079FE02214BF2040051
:103E400000F074FE0821184600F070FE50214FF477
:103E5000354000F06BFE0521184600F067FE00219A
:103E60004FF4374000F062FE00214BF2017000F089
:103E70005DFE01214FF4384000F058FE05214BF65D
:103E8000010000F053FE05214BF6020000F04EFE4B
:103E900005214BF6030000F049FE02214FF43C409F
:103EA00000F044FE00214BF6014000F03FFE0021EF
:103EB0004BF6024000F03AFE03214FF44C4000F074
:103EC00035FE00214CF6014000F030FE00214CF69A
:103ED000024000F02BFE01214FF43D4000F026FE91
:103EE00084214BF6015000F021FE07214BF60250D1
:103EF00000F01CFE31214BF6035000F017FE0021AC
:103F00004BF6045000F012FE01214FF43A4000F04D
:103F10000DFEAA214FF47F4000F008FE55214FF618
:103F2000017000F003FE25214FF6027000F0FEFD47
:103F300001214FF6037000F0F9FD40214FF4585075
:103F400000F0F4FD00214FF4545000F0EFFD052186
:103F50004FF4685000F0EAFD4FF4885000F0D0FDB7
:103F60007820FCF775FB4FF4245000F0C9FD782051
:103F7000FCF76EFBBDE8F05F4FF4305000F0C0BDC1
:103F800010B5E22000F0BCFD1D2000F0ADFD0220C8
:103F900000F0AAFD042000F0A7FD0120FCF758FB6B
:103FA000E02000F0ADFD012000F09EFD0A20FCF7AE
:103FB0004FFBE02000F0A4FD032000F095FD14204D
:103FC000FCF746FB012000F09BFD0A20FCF740FBBC
:103FD000E62000F095FD2F2000F086FDFF2000F088
:103FE00083FDFF2000F080FDB02000F089FD20203F
:103FF00000F07AFD002000F077FD032000F074FD52
:1040000040F21F3000F070FD012000F06DFD40F225
:10401000DF1000F069FD002000F066FDB42000F024
:104020006FFD042000F060FD40F21F4000F05CFDD9
:10403000002000F059FD2E2000F056FD002000F079
:1040400053FD002000F050FD002000F04DFD002049
:1040500000F04AFDB62000F053FD022000F044FDC0
:104060004FF4037000F040FD002000F03DFD1720EC
:1040700000F03AFD152000F037FD002000F034FD7F
:10408000002000F031FDF02000F03AFD032000F0A8
:104090002BFD292000F034FDD02000F031FD002060
:1040A00000F022FDBE2000F02BFD052000F01CFDDD
:1040B000FE2000F019FD012000F016FD002000F0A8
:1040C00013FD002000F010FD002000F00DFDB820D1
:1040D00000F016FD032000F007FD012000F004FDB4
:1040E000BA2000F00DFDBDE81040012000F0FCBC3E
:1040F00010B5112000F004FD7820FCF7A9FA362055
:1041000000F0FEFC002000F0EFFC3A2000F0F8FC8C
:10411000052000F0E9FCB22000F0F2FC0C2000F0D9
:10412000E3FC0C2000F0E0FC002000F0DDFC33207C
:1041300000F0DAFC332000F0D7FCB72000F0E0FC00
:10414000352000F0D1FCBB2000F0DAFC322000F07A
:10415000CBFCC02000F0D4FC0C2000F0C5FCC22039
:1041600000F0CEFC012000F0BFFCC32000F0C8FC32
:10417000102000F0B9FCC42000F0C2FC202000F0A8
:10418000B3FCC62000F0BCFC0F2000F0ADFCD0203A
:1041900000F0B6FCA42000F0A7FCA12000F0A4FCD5
:1041A000E02000F0ADFCD02000F09EFC002000F0EC
:1041B0009BFC022000F098FC072000F095FC0A20F0
:1041C00000F092FC282000F08FFC322000F08CFCE4
:1041D000442000F089FC422000F086FC062000F01C
:1041E00083FC0E2000F080FC122000F07DFC1420E7
:1041F00000F07AFC172000F077FCE12000F080FC52
:10420000D02000F071FC002000F06EFC022000F0D5
:104210006BFC072000F068FC0A2000F065FC2820F9
:1042200000F062FC312000F05FFC542000F05CFCE8
:10423000472000F059FC0E2000F056FC1C2000F036
:1042400053FC172000F050FC1B2000F04DFC1E20FA
:1042500000F04AFC2A2000F053FC002000F044FC4F
:10426000002000F041FC002000F03EFCEF2000F0B8
:104270003BFC2B2000F044FC002000F035FC00202B
:1042800000F032FC012000F02FFC3F2000F02CFC5D
:10429000BDE81040292000F033BC10B5112000F01B
:1042A0002FFC7820FCF7D4F9362000F029FC4820B8
:1042B00000F01AFC3A2000F023FC552000F014FC1A
:1042C000F02000F01DFCC32000F00EFCF02000F0F8
:1042D00017FC962000F008FCB42000F011FC01202F
:1042E00000F002FCB62000F00BFC0A2000F0FCFB02
:1042F000A22000F0F9FBB72000F002FCC62000F07D
:10430000F3FBB92000F0FCFB022000F0EDFBE02005
:1043100000F0EAFBC02000F0F3FB802000F0E4FB9B
:10432000162000F0E1FBC12000F0EAFB192000F0AC
:10433000DBFBC22000F0E4FBA72000F0D5FBC5208A
:1043400000F0DEFB162000F0CFFBE82000F0D8FBE9
:10435000402000F0C9FB8A2000F0C6FB002000F0DE
:10436000C3FB002000F0C0FB292000F0BDFB19209A
:1043700000F0BAFBA52000F0B7FB332000F0B4FB3F
:10438000E02000F0BDFBF02000F0AEFB072000F0C5
:10439000ABFB0D2000F0A8FB042000F0A5FB0520DE
:1043A00000F0A2FB142000F09FFB362000F09CFBE5
:1043B000542000F099FB4C2000F096FB382000F0D0
:1043C00093FB132000F090FB142000F08DFB2E20B7
:1043D00000F08AFB342000F087FBE12000F090FB26
:1043E000F02000F081FB102000F07EFB142000F094
:1043F0007BFB0E2000F078FB0C2000F075FB082002
:1044000000F072FB352000F06FFB442000F06CFBE5
:104410004C2000F069FB262000F066FB102000F025
:1044200063FB122000F060FB2C2000F05DFB3220CB
:1044300000F05AFBF02000F063FB3C2000F054FB3E
:10444000F02000F05DFB692000F04EFB7820FCF7C7
:10445000FFF8212000F054FBBDE81040292000F0B7
:104460004FBB00002DE9F04F87B03220FCF7F0F889
:10447000D32000F045FB00F02BF9934CA08000F016
:1044800027F9A08000F024F94FF6FF7101EA00201F
:10449000A08000F01DF9A18849F241380843A080AE
:1044A00047F2897545F2103947F2967645F2105A6F
:1044B00049F6060741F6631B40457DD0042000F015
:1044C0001FFB00F005F9A08000F002F9A08000F0C9
:1044D000FFF84FF6FF7101EA0020A08000F0F8F825
:1044E000A1880843A0F50541A080523965D0A842B3
:1044F00062D0D42000F004FB00F0EAF8A08000F0C5
:10450000E7F8A08000F0E4F84FF6FF7101EA002020
:10451000A08000F0DDF8A1880843A080484579D04C
:10452000D32000F0EDFA00F0D3F8A08000F0D0F82E
:10453000A08000F0CDF84FF6FF7101EA0020A080C6
:1045400000F0C6F8A1880843A080B04262D055218F
:104550004FF4704000F0EAFAAA214FF2010000F097
:10456000E5FA52214FF2020000F0E0FA08214FF282
:10457000030000F0DBFA01214FF2040000F0D6FA4C
:104580004FF4454000F0BCFA00F0A2F84FF6FF717E
:1045900001EA0020A0804CF2015000F0B1FA00F0D6
:1045A00097F8A1880843A0800520FCF751F8A1885E
:1045B00051452FD0D32001E02CE032E000F0A0FAEA
:1045C00000F086F8A08000F083F8A08000F080F86A
:1045D0004FF6FF7101EA0020A08000F079F8A18871
:1045E0000843A080B84215D0A12000F089FA00F05D
:1045F0006FF8A08000F06CF84FF6FF7101EA002020
:10460000A08000F065F8A1880843A0F5AE41A08025
:10461000613908D0A088A84208D100BFFFF768FD23
:1046200024E0A580FAE7A4F804B01AE0404502D1DE
:10463000FDF7BFFA1AE0484502D1FDF772FD15E01B
:10464000B04202D1FFF729FE10E0504502D1FEF73B
:10465000E2FC0BE0B84202D1FDF7C2FB06E0584590
:1046600004D1FFF78DFC642000F016FA1648A188EB
:104670005038A94201D103210EE0B94203D041458F
:1046800001D0514501D1022106E0494503D0B14294
:1046900001D0594508D1012100910291036B826834
:1046A00040686946FBF708FF0020FDF701FA012288
:1046B000D1030648FCF732F94FF6FF70FDF7E0F939
:1046C00007B0BDE8F08F0000740000200004024035
:1046D00008B50220401EFDD24FF0D840B0F880004F
:1046E000ADF80000BDF8000008BD000070B55F4CDB
:1046F00000232146A279898841F66316012A01D058
:104700001AB10CE0B14202D109E0B14207D1082848
:1047100005D2DFE800F0161812140C19100E082844
:1047200012D2DFE800F0110406080A0C0E108023F4
:104730000AE0402308E0C02306E0202304E06023D1
:1047400002E0A02300E0E023362045F21055A94204
:1047500000D10002A1F51342413A07D0A1F5EE4283
:10476000893A03D0A1F5EE42963A01D143F008030D
:10477000194600F0DBF9A188B1420AD098062088DA
:10478000628802D5904202D303E0904201D9228090
:1047900060806089A94240D100F0B2F9002000F0A9
:1047A000A3F96089401C80B200F0AAF9002000F053
:1047B0009BF96089801C80B200F0A2F92088401E1D
:1047C000C0F30F2000F090F96089C01C80B200F0A7
:1047D00097F92078401EC0B200F086F9A08900F059
:1047E0008FF9002000F080F9A089401C80B200F011
:1047F00087F9002000F078F9A089801C80B200F0D1
:104800007FF96088401EC0F30F2000F06DF9A08989
:10481000C01C80B200F074F921E000F071F90020B2
:1048200000F062F9002000F05FF92088401EC0F31C
:104830000F2000F059F92078401EC0B200F054F962
:10484000A08900F05DF9002000F04EF9002000F092
:104850004BF96088401EC0F30F2000F045F9A078A6
:10486000BDE87040401EC0B200F03EB974000020A8
:10487000F0B53B4A0D460446060A918810462F0AB9
:104880004089A1F5C853633B16D0A1F5AA43103B5C
:104890004CD000F035F9304600F026F9E0B200F0D7
:1048A00023F9908900F02CF9384600F01DF9E8B2A0
:1048B000BDE8F04000F018B9917931B300F020F96B
:1048C000304600F011F9E0B200F00EF91088401EF9
:1048D000C0F30F2000F008F91078401E5FFA80F056
:1048E00000F002F9908900F00BF9384600F0FCF86E
:1048F000E8B200F0F9F85088401EC0F30F2000F035
:10490000F3F89078401EC0B2D2E71188091B491E07
:104910008CB200F0F5F8002000F0E6F8002000F07E
:10492000E3F8200A00F0E0F8E0B2D9E700F0E8F898
:10493000304600F0D9F85089401C80B200F0E0F811
:10494000E0B200F0D1F8908900F0DAF8384600F0D3
:10495000CBF89089401C80B200F0D2F8A7E70000A5
:10496000740000202DE9FF4F1D460C468B4658076A
:1049700000D0012000EBD500690810FB01F0203ABF
:1049800000F0FF0AD0B20C2D0AD0102D0CD0182D3B
:104990000ED0202D46D1244901EB801600203EE0A8
:1049A00000EB4001214806E0214901EB0016F5E744
:1049B00000EBC0011F4800EB8106EFE716F8087016
:1049C0004FF00009380601D50E9A03E00D9828B97A
:1049D0001948026821460098FDF7E0F87806070EAE
:1049E0001648641CA4B24088A0421BD9A4EB0B005B
:1049F000A8420AD100985C46401C80B200900F4843
:104A00000188009881420DD906E009F1010000F00B
:104A1000FF09B9F1080FD5D308F10100C0B28046F3
:104A20005045CBD3BDE8FF8FBE660008FE4E0008A0
:104A30007253000862590008000000207400002032
:104A40002DE9FC4F044600F0FF0910190D46DDE981
:104A50000BB61FFA80F8581987B24FF0000A13E01E
:104A6000444503D305EB0B004C4685B2BD4210D242
:104A70000D985B46CDE900A029462046FFF772FF5E
:104A800004EB5B0084B2761C3278A2F120005E2831
:104A9000E6D9BDE8FC8F000010B50246BE2000F04C
:104AA0002FF8052000F020F8104600F012F99FEDD5
:104AB0000C1B53EC112B00F01FF900F0DDF880B255
:104AC00000F012F8012000F00FF8FF2000F00CF8C1
:104AD000002000F009F8BDE81040002000F004B804
:104AE000666666666666044001B5BDF80000ADF80E
:104AF0000000BDF800004FF0D841A1F8800008BDCB
:104B000001B5BDF80000ADF80000BDF800004FF0A1
:104B1000D841A1F87E0008BD03484FF0D841008974
:104B2000A1F87E0070470000740000204FF0D842CA
:104B300022F87E0F518070470EB50024FBF702FF6C
:104B4000FCF79EFDFCF740FDFCF7F8FCFCF7B4FC1D
:104B5000FFF788FCFCF756FF264D2888010421D575
:104B6000C6B225A0FBF7F8FB4FF47A73324627490B
:104B70002748FCF74FFC1F22244920208DE807001E
:104B80001423F02228210A20FFF75AFF204800684A
:104B90000168C9434906FBD41EA0FBF7DDFB0020DA
:104BA0002880DAE7641CA4B241F28830B4FBF0F14B
:104BB00000FB114028B919A0FBF7CEFB20A0FBF7A2
:104BC000CBFBC820B4FBF0F100FB114010B922A0D0
:104BD000FBF7C2FB1E20B4FBF0F100FB114020B933
:104BE0004FF400712348FBF791FE0A20FBF730FDDC
:104BF000B3E70000060000200D0AC4FAB7A2CBCD2F
:104C0000B5C4CFFBCFA2CEAA3A0D0A008400002083
:104C10004C0100200D0A0D0A000000000D0AD5FD10
:104C2000B5E3D4ADD7D32053544D3332BFAAB7A286
:104C3000B0E520B4AEBFDACAB5D1E90D0A00000074
:104C4000D5FDB5E3D4ADD7D340414C49454E54458D
:104C50004B0D0A0D0A0D0A00C7EBCAE4C8EBCAFDEA
:104C6000BEDD2CD2D4BBD8B3B5BCFCBDE1CAF80DB7
:104C70000A000000001402404FEA1153A3F58063BC
:104C8000D3F11E03A8BFD3F1200C08DB4FF0004284
:104C900042EAC12252EA505232FA03F07047094206
:104CA0000BD4102BC4BF0020704703F5787CBCF1F7
:104CB000FF3F05D04FF0FF3070474FF000007047C6
:104CC00070B500F0C3F800BF4992248000207047FF
:104CD000F0E7B0FA80F310FA03F10AD0C3F11D0334
:104CE00003F580634FEA41504FEA035202EBD121B2
:104CF00070474FF000007047DFF848C170B51CEAFC
:104D0000111E1EBF1CEA13159EEA0C0F95EA0C0F2C
:104D100000F06F8081EA030423EA4C134EEAD47E4C
:104D200021EA4C1141F4801143F48013AE44A1FBFD
:104D3000024CA0FB0365AEF17F7E361955EB0C05E6
:104D4000A1FB034C4CF10003A0FB021C16EB0C066C
:104D5000654153F10003094218BF46F0010613F400
:104D6000007F0BD14FEA03314FEA0530340341EAAB
:104D7000155140EA16506FF003020AE04FEAC321D2
:104D80004FEAC520F40241EA555140EA56506FF00F
:104D9000020202EB2E4201EB025585EACE710AD0E7
:104DA0005FEA440C18BF24F0004450F1000041F1C8
:104DB000000120EAD47040F2FE7C624500D270BD52
:104DC000A84214BF4FF080444FF04044002E08BF6B
:104DD0000024BEF1806FA8BFA1F1C041BDE87040C2
:104DE00080F282804FF0000001F1C04101F00041EB
:104DF00070479EEA0C0F0CEA131518BF95EA0C0FCA
:104E000006D04FF0000081EA030E0EF0004170BDA5
:104E100000F01CF88900013E00F007B800F009B866
:104E20004FEA430C5FEA5C5C08D081EA030100F0C2
:104E30005BB84FEA410C5FEA5C5CF6D14FF00000D2
:104E4000014970470000FF070000F87F0EF1020ED5
:104E50002EF0030E5EF8046B364205D4012A43EBB4
:104E6000030515F5001F12D8012841EB010C1CF5B4
:104E7000001F0CD80ED14FEAD17C15F5001F0CEBAA
:104E80004C0C0CF1020C08BF4CEBD37C04E04FF04F
:104E9000080C01E04FEAD37C0CEB4C0526FA05F632
:104EA00006F00706B6F1040C06D20EEB860CBDE840
:104EB00070404CF0010C6047DFE80CF0090B020277
:104EC0004FF000414FF00000A1F5002170BD1946E0
:104ED0001046012851EB010418BFD4F5001484BF1B
:104EE000002001F0004170BD0808A0F500114FEA54
:104EF000310170474FF04070E1EE100A704700003A
:104F000000000000000000000000000000003F4022
:104F100000000000000000003000400030004000B1
:104F2000000009000BC03D000BC03D00090018C087
:104F300024407FE0224031800000180024C01B0084
:104F40000D803240018003801C4027401C800740B8
:104F500000401000600000000000000000000000A1
:104F6000000000001F802040402000004020204022
:104F70001F8000000000090006001F8006000900D5
:104F80000000040004003F80040004000000001042
:104F900000600000000000000000040004000400A5
:104FA00004000400000000000040000000000000B9
:104FB0000000002001C006003800400000001F80F3
:104FC0002040204020401F800000000010403FC0D3
:104FD00000400000000018C021402240244018403A
:104FE000000010802040244024401B80000002006C
:104FF0000D0011003FC0014000003C8024402440CF
:105000002440238000001F8024402440344003803B
:1050100000003000200027C03800200000001B8066
:105020002440244024401B8000001C0022C0224059
:1050300022401F8000000000000008400000000027
:1050400000000000000004600000000000000000FC
:1050500004000A00110020804040090009000900F6
:1050600009000900000000004040208011000A00F3
:1050700004001800200023402400180000001F80B6
:105080002040274029401F400000004007C0390051
:105090000F0001C0004020403FC0244024401B803E
:1050A00000001F8020402040204030800000204031
:1050B0003FC0204020401F80000020403FC02440CF
:1050C0002E4030C0000020403FC024402E00300061
:1050D00000000F001080204022403380020020405A
:1050E0003FC0040004003FC02040204020403FC09B
:1050F0002040204000000060202020203FC02000F1
:10510000200020403FC024400B0030C02040204001
:105110003FC020400040004000C03FC03C0003C0F2
:105120003C003FC0000020403FC00C4023003FC077
:1051300020001F802040204020401F800000204091
:105140003FC024402400180000001F80214021405F
:1051500020E01FA0000020403FC02440260019C0CE
:10516000004018C02440244022403180000030001C
:1051700020403FC020403000000020003F80004021
:1051800000403F80200020003E0001C007003800A2
:105190002000380007C03C0007C038000000204055
:1051A00039C0060039C0204000002000384007C048
:1051B000384020000000304021C02640384020C048
:1051C0000000000000007FE04020402000000000C0
:1051D00070000C00038000400000000040204020D0
:1051E0007FE00000000000002000400020000000E0
:1051F000000000100010001000100010001000004F
:105200000000400000000000000000000280054097
:10521000054003C0004020003FC00440044003801C
:10522000000000000380044004400640000000002D
:105230000380044024403FC000400000038005403C
:10524000054003400000000004401FC024402440EB
:105250002000000002E005500550065004202040C8
:105260003FC00440040003C000400000044027C0C9
:1052700000400000000000100010041027E00000B3
:10528000000020403FC00140070004C0044020400F
:1052900020403FC000400040000007C0040007C09D
:1052A000040003C00000044007C00440040003C021
:1052B000004000000380044004400380000004100C
:1052C00007F0045004400380000000000380044005
:1052D000045007F00010044007C00240040004001E
:1052E0000000000006400540054004C0000000002A
:1052F00004001F80044000400000040007800040BC
:10530000044007C000400400070004C001800600FC
:105310000400060001C0070001C0060000000440B0
:1053200006C0010006C0044000000410071004E09D
:105330000180060004000000044005C0064004404F
:1053400000000000000004007BE04020000000009E
:1053500000000000FFF000000000000040207BE0A3
:1053600004000000000040008000400020002000F9
:1053700040000000000000000000000000000000ED
:1053800000000000000000001FCC000C0000000026
:1053900000000000080030006000080030006000DD
:1053A0000000022003FC1E20022003FC1E2002201D
:1053B000000000000E1811043FFF10840C7800005C
:1053C00000000F0010840F3800C0077818840078A0
:1053D000000000780F8410C411240E9800E40084AB
:1053E00000080800680070000000000000000000D5
:1053F000000000000000000007E018182004400230
:105400000000000040022004181807E0000000001F
:1054100000000240024001800FF001800240024083
:1054200000000080008000800FF800800080008075
:1054300000000001000D000E000000000000000050
:10544000000000000080008000800080008000805C
:1054500000800000000C000C0000000000000000B4
:10546000000000000006001800600180060018001F
:105470002000000007F0080810041004080807F0D6
:1054800000000000080408041FFC000400040000E1
:10549000000000000E0C10141024104411840E0C97
:1054A000000000000C1810041104110412880C7084
:1054B0000000000000E00320042408241FFC002456
:1054C000000000001F98108411041104108810704F
:1054D0000000000007F0088811041104188800700B
:1054E000000000001C00100010FC13001C00100045
:1054F000000000000E3811441084108411440E384E
:10550000000000000700088C10441044088807F0D1
:105510000000000000000000030C030C000000006D
:105520000000000000000001010600000000000073
:105530000000000000800140022004100808100450
:10554000000002200220022002200220022002206D
:105550000000000010040808041002200140008030
:10556000000000000E001200100C106C10800F00E4
:10557000000003E00C1813E4142417C4082807D013
:1055800000000004003C03C41C40074000E4001C71
:10559000000410041FFC1104110411040E88007093
:1055A000000003E00C1810041004100410081C1074
:1055B000000010041FFC100410041004080807F079
:1055C000000010041FFC1104110417C41004081873
:1055D000000010041FFC1104110017C01000080087
:1055E000000003E00C181004100410441C78004064
:1055F000000010041FFC10840080008010841FFC39
:1056000010040000100410041FFC1004100400001B
:10561000000000030001100110011FFE1000100027
:10562000000010041FFC110403801464181C1004F3
:10563000000010041FFC1004000400040004000C0F
:10564000000010041FFC1F0000FC1F001FFC1004C2
:10565000000010041FFC0C04030000E010181FFCE5
:10566000100007F00808100410041004080807F0E0
:10567000000010041FFC10841080108010800F00A8
:10568000000007F0081810241024101C080A07F264
:10569000000010041FFC1104110011C011300E0C89
:1056A000000400000E1C11041084108410441C38E7
:1056B00000001800100010041FFC10041000180057
:1056C000000010001FF810040004000410041FF86C
:1056D000100010001E0011E0001C007013801C0060
:1056E00010001FC0103C00E01F0000E0103C1FC075
:1056F00000001004180C163401C001C01634180C38
:10570000100410001C00130400FC13041C00100003
:1057100000000804101C1064108413041C041018EA
:1057200000000000000000007FFE40024002400236
:105730000000000030000C0003800060001C00032B
:10574000000000004002400240027FFE0000000016
:105750000000000000002000400040004000200049
:105760000000000100010001000100010001000132
:105770000001000040004000200000000000000088
:10578000000000000098012401440144014400FC91
:10579000000410001FFC0088010401040088007050
:1057A000000000000070008801040104010400886A
:1057B00000000000007000880104010411081FFCB3
:1057C0000004000000F8014401440144014400C801
:1057D00000000000010401040FFC11041104110079
:1057E0001800000000D601290129012901C901067C
:1057F000000010041FFC008401000100010400FCF3
:10580000000400000104190419FC00040004000055
:1058100000000000000300010101190119FE000051
:10582000000010041FFC0024004001B4010C01041E
:1058300000000000100410041FFC0004000400001D
:105840000000010401FC0104010001FC010401004D
:1058500000FC010401FC008401000100010400FCC3
:105860000004000000F8010401040104010400F830
:105870000000010101FF008501040104008800709F
:10588000000000000070008801040104010501FF10
:1058900000010104010401FC0084010401000180F5
:1058A0000000000000CC01240124012401240198FF
:1058B000000000000100010007F8010401040000DD
:1058C0000000010001F8000400040004010801FCCC
:1058D0000004010001800170000C001001600180D3
:1058E000010001F0010C003001C00030010C01F09A
:1058F000010000000104018C00740170018C01049E
:105900000000010101810171000E00180160018099
:10591000010000000184010C013401440184010CE8
:105920000000000000000000000001003EFC4002FA
:1059300040020000000000000000FFFF0000000027
:1059400000000000400240023EFC01000000000098
:105950000000000060008000800040004000200047
:105960002000000000000000000000000000000017
:105970000000000000000000000000000000000027
:105980000000000000000000000000000000000017
:1059900000000000000F80380FFE380F8038000034
:1059A00000000000000000000000000000000000F7
:1059B0000100000600000C00003800003100000665
:1059C00000000C0000380000300000000000000063
:1059D000000061800067F807F98000618000618045
:1059E0000061800061800067F807F9800061800035
:1059F000000000000000000001C0E003E0F00630FD
:105A0000080418081FFFFE040E080787F00381E052
:105A100000000000000001F000060C00040408066D
:105A20000C7001F9C0000E00003BE000EC18070804
:105A300008040C180003E00000000001E00007F07B
:105A400003F818041C0804170807E1D003C0E0009D
:105A500023B0003C080020080000100000000000F7
:105A6000000100003100003200001C0000000000B6
:105A70000000000000000000000000000000000026
:105A80000000000000000000000000000000000016
:105A900000007F0001FFC00780F00C001810000418
:105AA0002000020000000000002000021000040C92
:105AB00000180780F001FFC0007F00000000000018
:105AC0000000000000000000000000000000420094
:105AD000006600006600003C0000180003FFC000E4
